S01600004F70656E4C6F6F705F54657861732E737265637E
S113000071C000008EC000001FC2000051C2000079
S113001083C2000086C0000084C0000082C00000CB
S113002080C000007EC000007CC000007AC00000D8
S113003078C0000076C0000074C0000072C00000E8
S113004070C000006EC000006CC000006AC00000F8
S113005072C0000066C0000064C0000062C00000FE
S113006060C000005EC000005CC000005AC0000018
S113007058C0000056C0000054C0000052C0000028
S113008050C000004EC000004CC000004AC0000038
S113009048C0000046C0000044C0000042C0000048
S11300A040C000003EC000003CC000003AC0000058
S11300B038C0000036C0000034C0000032C0000068
S11300C030C000002EC000002CC000002AC0000078
S11300D028C0000026C0000024C0000022C0000088
S11300E020C0000011241FBECFEFD1E2DEBFCDBF80
S11300F000E00CBF12E0A0E0B2E0ECEDF7E000E0BD
S11301000BBF02C007900D92A830B107D9F722E0C7
S1130110A8E0B2E001C01D92A831B207E1F71BD1FB
S11301205BC36ECFF894E1E8F0E080818D7F80833B
S113013010920D0208951F920F920FB60F92112480
S11301402F933F934F938F939F938091130290919A
S113015014020196909314028093130220911602C4
S1130160309117022F5F3F4F3093170220931602EE
S113017040910D02413079F50B97F0F080910E0219
S113018090910F022091100230911102821793076F
S1130190F0F420910A0230910B02820F931F909386
S11301A00F0280930E02909389008093880010922E
S11301B01402109213023CC020910E0230910F02DF
S11301C080911002909111022817390788F182E07A
S11301D080930D022DC0423059F5293E334038F04A
S11301E0109217021092160281E080930C02209163
S11301F010023091110280910E0290910F02821729
S1130200930730F4029690930F0280930E0208C075
S11302102817390728F4029790930F0280930E024F
S113022080910E0290910F02909389008093880030
S11302309F918F914F913F912F910F900FBE0F90EF
S11302401F9018958231C9F028F48630D1F0893096
S113025061F01FC0813269F0843219F08831C9F429
S113026014C088E480930B0118C082E180930B01D1
S113027014C082E480930B0110C084E280930B01CC
S11302800CC08CE080930B0108C080E380930B01C9
S113029004C081E08093090245DF109209020895A9
S11302A0EAE7F0E0808186608083808186FDFDCF6F
S11302B0609178007091790080E090E08DD120E029
S11302C030E040E85AE3EED120E030E847E754E478
S11302D0E9D156D1709311026093100289B18E70E6
S11302E090E09595879580931502FC01E050FE4FB0
S11302F0808180931202A6DF80910E0290910F02FA
S1130300209110023091110282179307D8F4281B10
S1130310390BADECBCEC51D2880F892F881F990B97
S11303209195009729F090930B0280930A0206C0DE
S113033081E090E090930B0280930A0281E0809325
S11303400D0203C082E080930D02E1E8F0E08081B9
S11303508260808308951AB8E9E6F0E080818465BC
S113036080838DB38E608DBB259A8EE780930A01BE
S1130370E0E8F0E0808182608083A1E8B0E08C91C5
S113038088618C9388EE93E0909387008093860035
S1130390808180688083EFE6F0E0808181608083E3
S11303A082E390E090930F0280930E029093890071
S11303B080938800ECE7F0E0808180648083EAE742
S11303C0F0E08081846880831092140210921302FA
S11303D010920D0281E08093090210920C0260DFFA
S11303E07894CAE7D0E008E710E00F2EF2E3EF2E8E
S11303F0F12CF02D80910C028130F1F78881866018
S11304008883888186FDFDCFF8016081718180E059
S113041090E0E2D020E030E040E85AE343D120E02D
S113042030E847E754E43ED1ABD06233710528F499
S1130430F0921102E092100204C0709311026093D2
S1130440100210920C02D6CF1F920F920FB60F9289
S113045011240BB60F922F933F934F935F936F9397
S11304607F938F939F93AF93BF93EF93FF9389B140
S11304708E7090E09595879580931502FC01E0506D
S1130480FE4F808180931202DDDEFF91EF91BF91D8
S1130490AF919F918F917F916F915F914F913F9118
S11304A02F910F900BBE0F900FBE0F901F901895B9
S11304B01F920F920FB60F9211240BB60F922F9327
S11304C03F934F935F936F937F938F939F93AF93D8
S11304D0BF93EF93FF9389B18E7090E095958795C4
S11304E080931502FC01E050FE4F8081809312023C
S11304F0A9DEFF91EF91BF91AF919F918F917F9171
S11305006F915F914F913F912F910F900BBE0F9080
S11305100FBE0F901F9018951F920F920FB60F9257
S113052011240BB60F922F933F934F935F936F93C6
S11305307F938F939F93AF93BF93EF93FF9389B16F
S11305408E7090E09595879580931502FC01E0509C
S1130550FE4F80818093120275DEFF91EF91BF916F
S1130560AF919F918F917F916F915F914F913F9147
S11305702F910F900BBE0F900FBE0F901F901895E8
S113058070D088F09F5790F0B92F9927B751A0F0F9
S1130590D1F0660F771F881F991F1AF0BA95C9F713
S11305A012C0B13081F077D0B1E0089574C0672FE4
S11305B0782F8827B85F39F0B93FCCF386957795C3
S11305C06795B395D9F73EF49095809570956195AC
S11305D07F4F8F4F9F4F0895E89409C097FB3EF4D7
S11305E090958095709561957F4F8F4F9F4F99237C
S11305F0A9F0F92F96E9BB279395F69587957795FA
S11306006795B795F111F8CFFAF4BB0F11F460FFB9
S11306101BC06F5F7F4F8F4F9F4F16C0882311F011
S113062096E911C0772321F09EE8872F762F05C025
S1130630662371F096E8862F70E060E02AF09A95C0
S1130640660F771F881FDAF7880F9695879597F9B5
S1130650089557FD9058440F551F59F05F3F71F0AE
S11306604795880F97FB991F61F09F3F79F0879515
S11306700895121613061406551FF2CF4695F1DF9E
S113068008C0161617061806991FF1CF869571052E
S1130690610508940895E894BB2766277727CB0162
S11306A097F908950BD078C069D028F06ED018F06F
S11306B0952309F05AC05FC01124EECFCADFA0F31E
S11306C0959FD1F3950F50E0551F629FF001729FE3
S11306D0BB27F00DB11D639FAA27F00DB11DAA1F02
S11306E0649F6627B00DA11D661F829F2227B00D4F
S11306F0A11D621F739FB00DA11D621F839FA00DDA
S1130700611D221F749F3327A00D611D231F849F29
S1130710600D211D822F762F6A2F11249F57504080
S11307208AF0E1F088234AF0EE0FFF1FBB1F661F1B
S1130730771F881F91505040A9F79E3F510570F0D4
S113074014C0AACF5F3FECF3983EDCF3869577950F
S11307506795B795F795E7959F5FC1F7FE2B880FCF
S1130760911D9695879597F9089597F99F6780E865
S113077070E060E008959FEF80EC089500240A94EF
S11307801616170618060906089500240A94121668
S11307901306140605060895092E0394000C11F49B
S11307A0882352F0BB0F40F4BF2B11F460FF04C048
S11307B06F5F7F4F8F4F9F4F0895A29FB001B39FEC
S11307C0C001A39F700D811D1124911DB29F700D56
S10F07D0811D1124911D0895F894FFCFA1
S10B07DC002409211206180093
S9030000FC
