S01800004F70656E4C6F6F704F6E5F6D333238502E737265636A
S11300000C9434000C9451000C9451000C94510045
S11300100C94A9010C9451000C9451000C945100BF
S11300200C9451000C9451000C9451000C94510008
S11300300C9451000C94D7010C9451000C94510071
S11300400C9451000C9451000C9451000C945100E8
S11300500C9451000C9451000C9451000C945100D8
S11300600C9451000C94510011241FBECFEFD8E022
S1130070DEBFCDBF11E0A0E0B1E0E0E0F8E002C0F7
S113008005900D92A830B107D9F721E0A8E0B1E0BE
S113009001C01D92A831B207E1F70E9422010C941D
S11300A0FE030C9400008231B1F028F48630B1F0E4
S11300B0893059F00895813259F0843219F0883129
S11300C091F40FC080E98BB9089584E28BB9089547
S11300D084E88BB9089588E48BB9089588E18BB9D5
S11300E0089580E38BB90895CF93DF93EAE7F0E0B6
S11300F0808180648083808186FDFDCF809178003B
S11301009091790090930F0180930E0160910E01FC
S113011070910F01072E000C880B990B0E94F602B8
S113012020E030E240E854E40E94530220E034E24C
S113013044E75BE40E94820320E030E44CE955E4A8
S11301400E9453020E94C502709311016093100132
S1130150CEE1D0E0E6B1E770E0931701F0E0E050C3
S1130160FF4F8081809312010E945300219791F7E1
S113017080910C0190910D01209110013091110199
S113018082179307D8F4281B390B36952795ABE7CC
S1130190B4E10E94EF0396958795009729F0909318
S11301A00A018093090106C081E090E090930A015E
S11301B08093090181E080930B0103C082E0809366
S11301C00B01E1E8F0E0808181608083DF91CF91D1
S11301D00895E8E6F0E0808182608083ECE6F0E058
S11301E08081876080830895ECE7F0E080818364F8
S11301F08083EAE7F0E08081846880830895E0E802
S1130200F0E0808182608083A1E8B0E08C91886115
S11302108C9380E89CE0909387008093860080EA2A
S113022090E090930D0180930C019093890080934A
S11302308800808180688083EFE6F0E080818160BF
S1130240808308951092140110921301219A8CEF67
S11302508AB90E94F4000E94E9000E94FF000E94F3
S113026074007894CAE7D0E00F2EF8E7EF2EF12C53
S1130270F02D00E810E00F2EF0EACF2ED12CF02D57
S1130280888180648883888186FDFDCFF701808121
S11302909181909316018093150180910E019091A4
S11302A00F0120911501309116010A9682179307C8
S11302B064F080910E0190910F012091150130910D
S11302C016010A9728173907DCF6809115019091D9
S11302D0160190930F0180930E0160910E017091AD
S11302E00F01072E000C880B990B0E94F60220E0E8
S11302F030E240E854E40E94530220E034E244E750
S11303005BE40E94820320E030E44CE955E40E945F
S113031053020E94C502F801208120682083603ABC
S1130320710528F4D0921101C0921001A9CF209137
S11303300E0130910F01283E334034F0F8018081E2
S11303408F778083299A9CCF709311016093100159
S113035097CF1F920F920FB60F9211242F933F93B2
S11303604F935F936F937F938F939F93AF93BF93B9
S1130370EF93FF93E6B1E770E0931701F0E0E050EC
S1130380FF4F8081809312010E945300FF91EF91EF
S1130390BF91AF919F918F917F916F915F914F9199
S11303A03F912F910F900FBE0F901F9018951F92A1
S11303B00F920FB60F9211242F933F938F939F9315
S11303C080911301909114010196909314018093EC
S11303D0130120910B012130D1F50B9748F12091A5
S11303E00C0130910D018091100190911101281799
S11303F0390748F58091090190910A01820F931FF2
S113040090930D0180930C0180382CE0920738F012
S11304108FE79CE0909389008093880004C09093B8
S1130420890080938800109214011092130132C045
S113043020910C0130910D018091100190911101D6
S11304402817390738F182E080930B0123C022304A
S113045009F5209110013091110180910C019091C6
S11304600D018217930730F4069690930D01809343
S11304700C0108C02817390728F4069790930D013A
S113048080930C0180910C0190910D01909389004F
S1130490809388009F918F913F912F910F900FBE71
S11304A00F901F9018950E9467020C9448030E94B5
S11304B0410358F00E943A0340F029F45F3F29F0C9
S11304C00C94310351110C947C030C9437030E9457
S11304D0590368F39923B1F3552391F3951B550BF5
S11304E0BB27AA2762177307840738F09F5F5F4F03
S11304F0220F331F441FAA1FA9F335D00E2E3AF042
S1130500E0E832D091505040E695001CCAF72BD059
S1130510FE2F29D0660F771F881FBB1F26173707AA
S11305204807AB07B0E809F0BB0B802DBF01FF27DC
S113053093585F4F3AF09E3F510578F00C94310385
S11305400C947C035F3FE4F3983ED4F3869577954F
S11305506795B795F7959F5FC9F7880F911D969595
S1130560879597F90895E1E0660F771F881FBB1FF1
S1130570621773078407BA0720F0621B730B840B9E
S1130580BA0BEE1F88F7E09508950E94610388F086
S11305909F5798F0B92F9927B751B0F0E1F0660F43
S11305A0771F881F991F1AF0BA95C9F714C0B13084
S11305B091F00E947B03B1E008950C947B03672FB4
S11305C0782F8827B85F39F0B93FCCF386957795B3
S11305D06795B395D9F73EF490958095709561959C
S11305E07F4F8F4F9F4F0895E89409C097FB3EF4C7
S11305F090958095709561957F4F8F4F9F4F99236C
S1130600A9F0F92F96E9BB279395F69587957795E9
S11306106795B795F111F8CFFAF4BB0F11F460FFA9
S11306201BC06F5F7F4F8F4F9F4F16C0882311F001
S113063096E911C0772321F09EE8872F762F05C015
S1130640662371F096E8862F70E060E02AF09A95B0
S1130650660F771F881FDAF7880F9695879597F9A5
S1130660089597F99F6780E870E060E008959FEF30
S113067080EC089500240A94161617061806090635
S1130680089500240A941216130614060506089504
S1130690092E0394000C11F4882352F0BB0F40F48C
S11306A0BF2B11F460FF04C06F5F7F4F8F4F9F4FCC
S11306B0089557FD9058440F551F59F05F3F71F04E
S11306C04795880F97FB991F61F09F3F79F08795B5
S11306D00895121613061406551FF2CF4695F1DF3E
S11306E008C0161617061806991FF1CF86957105CE
S11306F0610508940895E894BB2766277727CB0102
S113070097F908950E9495030C9448030E943A03B4
S113071038F00E94410320F0952311F00C9431032A
S11307200C94370311240C947C030E94590370F336
S1130730959FC1F3950F50E0551F629FF001729F82
S1130740BB27F00DB11D639FAA27F00DB11DAA1F91
S1130750649F6627B00DA11D661F829F2227B00DDE
S1130760A11D621F739FB00DA11D621F839FA00D69
S1130770611D221F749F3327A00D611D231F849FB9
S1130780600D211D822F762F6A2F11249F57504010
S11307909AF0F1F088234AF0EE0FFF1FBB1F661F8B
S11307A0771F881F91505040A9F79E3F510580F054
S11307B00C9431030C947C035F3FE4F3983ED4F330
S11307C0869577956795B795F795E7959F5FC1F7F8
S11307D0FE2B880F911D9695879597F90895A29FF2
S11307E0B001B39FC001A39F700D811D1124911D01
S11307F0B29F700D811D1124911D0895F894FFCFAF
S10B080000240921120618006E
S9030000FC
