S017000062727573686C657373206D6F746F722E73726563E1
S113000071C0000079C0000077C0000075C0000016
S113001073C0000071C000006FC000006DC000001C
S11300206BC0000069C0000067C0000065C000002C
S113003063C0000061C000005FC000005DC000003C
S11300405BC0000059C00000D2C0000055C00000D1
S1130050C2C0000051C000004FC000004DC00000ED
S11300604BC0000049C0000047C0000045C000006C
S113007043C0000041C000003FC000003DC000007C
S11300803BC00000CCC0000037C00000BCC0000072
S113009033C0000031C000002FC000002DC000009C
S11300A02BC0000029C0000027C00000D0C0000001
S11300B023C00000C0C000001FC000001DC000001D
S11300C01BC0000019C0000017C0000015C00000CC
S11300D013C0000011C000000FC000000DC00000DC
S11300E00BC0000011241FBECFEFD1E2DEBFCDBF95
S11300F000E00CBFB8D0CAC083CF81E883BDE1E87B
S1130100F0E080818B618083E1E9F0E080818B61A4
S11301108083E1EAF0E080818B618083E0E8F0E0B5
S1130120808182608083E0E9F0E080818260808366
S1130130E0EAF0E0808182608083E6E8F0E082EE2D
S113014094E0918380838081918190939700809340
S11301509600808191819093A7008093A60085E00A
S113016080936F00809371008093720080819181ED
S11301709695879590938B0080938A0080819181D6
S11301809695879590939B0080939A0080819181A6
S1130190969587959093AB008093AA002081318136
S11301A0ABEABAEA64D09695879596958795E4E884
S11301B0F0E09183808310929500109294008081E6
S11301C091819195819591099093A5008093A400C4
S11301D013BC789408951F920F920FB60F921124B6
S11301E0419A45980F900FBE0F901F9018951F923B
S11301F00F920FB60F921124449A42980F900FBE9B
S11302000F901F9018951F920F920FB60F92112402
S1130210429A46980F900FBE0F901F9018951F9208
S11302200F920FB60F921124459A43980F900FBE68
S11302300F901F9018951F920F920FB60F921124D2
S1130240439A41980F900FBE0F901F9018951F92DC
S11302500F920FB60F921124469A44980F900FBE36
S11302600F901F9018958EE787B947DFFFCFA29FA5
S1130270B001B39FC001A39F700D811D1124911D76
S1130280B29F700D811D1124911D0895F894FFCF24
S9030000FC
